:020000040800F2
:10000000F0D700209D02000815B20008498C0008B6
:10001000CDA60008711B0008951D01080000000016
:1000200000000000000000000000000081CD00087A
:10003000792500080000000071BA000875D2000898
:10004000B7020008B7020008B7020008B7020008AC
:10005000B7020008B7020008B7020008B70200089C
:10006000B7020008B7020008B7020008B70200088C
:10007000C1200008B7020008B7020008B702000854
:10008000B7020008B7020008B7020008B70200086C
:10009000751B0008B7020008B70200081D260008FB
:1000A000B7020008B7020008B7020008B70200084C
:1000B00015D40008B7020008B7020008B70200080C
:1000C000B7020008B7020008B7020008B70200082C
:1000D000B702000869DF0008B702000879DF0008EE
:1000E000B7020008B7020008B7020008B70200080C
:1000F000B7020008B7020008B7020008B7020008FC
:10010000B7020008B702000825D40008B7020008AB
:10011000B7020008B7020008B7020008B7020008DB
:10012000B7020008D1200008E1200008B70200084B
:10013000B7020008B7020008B7020008B7020008BB
:10014000B7020008C11B0008B70200088DB2000802
:10015000B7020008F12000080121000889DF00082B
:10016000B7020008B7020008B7020008B70200088B
:10017000B7020008B7020008B7020008000000003C
:10018000B7020008B702000800F002F800F076F8A5
:1001900014A696E8000CB244B344DA4501D100F04D
:1001A0006DF8BAE80F000FA696E83000A5EB04053D
:1001B00004EB0607AAEB0704A7F101074FEA1515A0
:1001C0004FEA3414A4F10104AC4201D300F056F814
:1001D00013F0010F18BFFB1A43F0010300F001F800
:1001E000DBE71847B84A0100D84A01000A444FF03B
:1001F000000C10F8013B13F0070408BF10F8014B86
:100200001D1108BF10F8015B641E05D010F8016BCA
:10021000641E01F8016BF9D113F0080F1EBF10F82E
:10022000014BAD1C0C1B09D16D1E58BF01F801CB51
:10023000FAD505E014F8016B01F8016B6D1EF9D5D4
:100240009142D6D37047000070470000002300247D
:1002500000250026103A28BF78C1FBD8520728BFD6
:1002600030C148BF0B6070471FB514F0CCFA9DE851
:10027000030000F06BFE1FBD10B510BD00F0F8FECE
:100280001146FFF7F1FF12F0B3FA00F016FF03B4C6
:10029000FFF7F2FF03BC00F047FF0000094880476A
:1002A00009480047FEE7FEE7FEE7FEE7FEE7FEE758
:1002B000FEE7FEE7FEE7FEE704480549054A064B70
:1002C0007047000071D3000889010008F0970020F2
:1002D000F0D70020F0B70020F0B7002070B40588F8
:1002E0000E884468D1F804C05368B54208D14088EC
:1002F0004988884201BF11888D425188884203D0C5
:1003000070BC6FF00200704705FB00F1880827D031
:1003100094ED001ADCED000A94ED010ADCED011AFF
:1003200031EE201AD4ED020A70EE211A9CED020A79
:1003300083ED001AC3ED011A94ED031ADCED031AE4
:1003400030EE800A401E71EE210A83ED020A04F1AC
:100350001004C3ED030A03F110030CF1100CD7D104
:1003600011F0030030D0B0F1004F30D200282BDD67
:10037000211F1B1FACF1040210F0010F0AD091EDF8
:10038000010AD2ED010A091D121D30EE200A83ED8B
:10039000010A1B1D400817D091ED010AD2ED010A98
:1003A000401E30EE200A83ED010A91ED020AD2EDE3
:1003B000020A01F1080102F1080230EE200A83ED81
:1003C000020A03F10803E7D170BC00207047B4ECC7
:1003D000010A401EFCEC010A30EE200AA3EC010ADF
:1003E000F5D1F1E701804280436070472DE9F34F7A
:1003F00084B0049840680090486801900498B0F870
:1004000000E04588DFEDFE0A00200290B0EE600AB1
:10041000AE4506D108884988884204BF71468645A2
:1004200004D06FF0020006B0BDE8F08F01985FEADB
:10043000010C18BFB7EE001A3DD000BFBEEB0C0197
:1004400017D0B1F1004F80F01F82002911DD021F8B
:1004500011F0010F1CBFC2ED010A121D4B1006D096
:10046000C2ED010AC2ED020A08325B1EF8D100EBB0
:100470008100BCF10102A0EC011A19D0B2F1004FC9
:1004800080F00882002A13DD031F12F0010F1CBF49
:10049000C3ED010A1B1D511008D000BFC3ED010AB6
:1004A000C3ED020A491E03F10803F7D100EB8200F5
:1004B000BCF1010CC2D14FF000080395002D14BF10
:1004C000B0EE602A002000F0BF8100BF009908FB59
:1004D00005F001EB800B0199DBED002A01EB8000B8
:1004E0000346F0EE421AC64552D9AEEB0802ABEB1A
:1004F000850112F0010F17D001EB850191ED000A83
:10050000B5EEC00AF1EE10FA07DDB4EEE10AF1EE45
:1005100010FA09DDF0EE401A06E0B1EE400AF4EE02
:10052000C01AF1EE10FAF5D3521031D001EB850C60
:100530009CED000AB5EEC00AF1EE10FA05DDB4EE4E
:10054000E10AF1EE10FA09DD06E0B1EE400AF4EE40
:10055000C01AF1EE10FA01D2F0EE401A01EBC5011B
:1005600091ED000AB5EEC00AF1EE10FA05DDB4EE29
:10057000E10AF1EE10FA09DD06E0B1EE400AF4EE10
:10058000C01AF1EE10FA01D2F0EE401A521ECDD18F
:10059000F5EEC01AF1EE10FA00F07381F5EEC02A04
:1005A0000126F1EE10FA0099D4BFB1EE620AB0EE66
:1005B000620AB4EE610AF1EE10FA1CBFAEEB08025B
:1005C000B2F1010C47D005FB08F201EB820292ED7B
:1005D000001A00BFB0EE410A05FB06F4B5EEC00AF2
:1005E00000EB8404F1EE10FACCBFF0EE400AF1EE1D
:1005F000400AF4EE610AF1EE10FA28D1B5EB080CCE
:1006000011D0BCF1004F7DD2BCF1000F0BDD00BF5B
:1006100092ED000AD1ED000ABCF1010CE2EC010AF6
:10062000A1EC010AF4D129000ED0B1F1004F6AD239
:10063000002909DD94ED000AD0ED000A491EE4EC22
:10064000010AA0EC010AF5D1012002900BE0761C12
:10065000BCF1010CBED10298012804D0F5EEC02AED
:10066000F1EE10FA7ED09BED000AB5EB08009A4639
:100670005946064622D0B0F1004F74D200281DDD45
:10068000091F10F0010F06D0F0EE400A80EEA01A0C
:1006900081ED011A091D401010D000BFD1ED010AF3
:1006A000401E80EE801A81ED011A91ED021AC1EE12
:1006B000000AC1ED020A01F10801EFD1280026D09D
:1006C000B0F1004F7ED2002821DDAAF1040110F024
:1006D000010F06D0D1ED010A80EE801A81ED011ADA
:1006E000091D401013D000BFD1ED010A401E80EE5D
:1006F000801A81ED011AD1ED020A80EE801A81ED97
:10070000021A01E0CBE0D6E001F10801ECD1DDE90D
:1007100000124FF000095FEA0E0773D0C14504BF15
:1007200001EB860102EB850274D091ED000ADC46F4
:100730005046331E35D01C46B6F1004F7ED2002CF9
:100740002FDD0B1FABF1040C16F0010F0FD0F0EEF4
:10075000400ADCED011AB0EE601A00EEE11A83EDFA
:10076000011A01E08DE0B1E01B1D0CF1040C7410C6
:1007700015D000BFD3ED010A9CED011A40EE410AED
:10078000C3ED010AD3ED020A9CED021A0CF1080C2C
:1007900040EE410AC3ED020A0833641EEAD101EBC0
:1007A00086012B0036D0B3F1004F72D2002B31DD21
:1007B000A2F1040CAAF1040013F0010F0CD0DCED3F
:1007C000010A00E08BE090ED011A001D40EE410AA5
:1007D000CCED010A0CF1040C5C1019D0DCED010A1F
:1007E00090ED011A40EE410ACCED010ADCED020A5F
:1007F00090ED021A083040EE410ACCED020A03E007
:10080000000000000DE005E0641E0CF1080CE5D1CD
:1008100002EB830201EB88017F1E09F101097FF4DD
:100820007DAF009808F10108001D00900398401E5C
:1008300003907FF44BAE0299012900E058E004BF19
:1008400006B0BDE8F08F00BFB5EEC00AF1EE10FAB9
:100850007FF4E9AD04990EFB05F3002B4A684FF0D5
:1008600000010BD902EB810C9CED000AB5EEC00A29
:10087000F1EE10FA02D1491C8B42F3D88B427FF47F
:10088000D2AD6FF00400CEE5E0EC010A491EFBD1C9
:10089000EFE538E0E0EC010A521EFBD108E692EDEC
:1008A000000AD1ED000ABCF1010CE2EC010AA1EC56
:1008B000010AF4D1B7E694ED000AD0ED000A491E12
:1008C000E4EC010AA0EC010AF5D1BDE6D1ED000A85
:1008D000401E80EE801AA1EC011AF7D1EEE6D3EDAE
:1008E000000A401E80EE801AA3EC011AF7D10EE731
:1008F000BCEC011AD1ED000A5B1E40EE410AE1ECAE
:10090000010AF5D14DE7B0EC011AD2ED000A5B1EE9
:1009100040EE410AE2EC010AF5D17BE72DE9F04F08
:1009200082B0466853680193058847884B88002049
:1009300000900888874201BFB2F800C06545528820
:1009400093421EBF6FF0020002B0BDE8F08F9FED32
:10095000412A4FEA970EC7F3400B00BFDDE90002C2
:1009600002EB800A4A6898464FF00009B0EE420A4E
:10097000B4465FEA0E0025D092ED001ADCED001AB5
:1009800002EB8302DCED010A01EE810A92ED001A0E
:1009900002EB8302401ED2ED001A02EB830200EE4E
:1009A000810A9CED021ADCED030A00040CF1100C24
:1009B000000C01EE210A92ED001A02EB830200EE18
:1009C000810AD9D117F0030026D0ACF10404A2EBC0
:1009D000830210F0010F08D002EB8302D4ED010A6C
:1009E00092ED001A241D00EE810A5FEA0B0013D07D
:1009F00002EB830CD4ED010A9CED001A02EBC3025A
:100A0000401E00EE810AD4ED020A92ED001A04F1B4
:100A1000080400EE810AEBD109F10100AAEC010AF9
:100A20001FFA80F9486800EB8902A8F101001FFA5B
:100A300080F8B8F1000F99D1009806EB87061844AA
:100A400080B20090681E05042D0C87D102B00020F2
:100A5000BDE8F08F0000000070B405880E8844687F
:100A6000D1F804C05368B54208D14088498888420B
:100A700001BF11888D425188884203D070BC6FF04D
:100A80000200704705FB00F1880827D094ED001A9A
:100A9000DCED000A94ED010ADCED011A31EE601A7A
:100AA000D4ED020A70EE611A9CED020A83ED001A81
:100AB000C3ED011A94ED031ADCED031A30EEC00AFF
:100AC000401E71EE610A83ED020A04F11004C3EDC9
:100AD000030A03F110030CF1100CD7D111F003003D
:100AE00030D0B0F1004F30D200282BDD211F1B1F6A
:100AF000ACF1040210F0010F0AD091ED010AD2ED21
:100B0000010A091D121D30EE600A83ED010A1B1D4A
:100B1000400817D091ED010AD2ED010A401E30EED7
:100B2000600A83ED010A91ED020AD2ED020A01F199
:100B3000080102F1080230EE600A83ED020A03F1B7
:100B40000803E7D170BC00207047B4EC010A401ED6
:100B5000FCEC010A30EE600AA3EC010AF5D1F1E7E2
:100B60002DE9F04F02884768B0F802804888D1F834
:100B7000049082B04FF0000A1646824207BF0988EF
:100B800088456FF0020002B018BFBDE8F08F4FEA51
:100B9000980B02EB42000190C8F34000CDF8000032
:100BA00009EB8A01BBF1000F33D0019801EB820CF5
:100BB00001EB80043B46E64601EBC2054FEA0B0021
:100BC00093ED000A401E81ED000A93ED010A01EB4E
:100BD00002118CED000A93ED020A0CEB021C85ED6C
:100BE000000A93ED030A05EB021584ED000A04EBFD
:100BF000021403F11003E3D10EEB820000EB82003C
:100C000000EB8201ABF10100504307EB0B1701EB46
:100C1000001118F0030C21D03B1FA1EB82011CF046
:100C2000010F06D093ED010A01EB82011B1D81ED3E
:100C3000000A009880B100BF93ED010A01EB820425
:100C400001EBC20184ED000A93ED020A401E81ED22
:100C5000000A03F10803EFD107EB8C070AF101004A
:100C60001FFA80FA701E0604360C99D102B00020DB
:100C7000BDE8F08F70B5064600F04CF9056806F146
:100C80000B0020F00704B4429CBF002070BD2B462F
:100C90006A68BAB11068A04210D304F10801884212
:100CA0003CBF5068586007D3516810194160116803
:100CB000091B016058601460101D70BD1346526816
:100CC000002AE7D12146284600F02CF90028DED181
:100CD00070BD53EA020C00F069802DE9F04B4FF033
:100CE0000006002B1FBFB3FA83F503FA05F424FABC
:100CF00005F65E4012BF1643B2FA82F502FA05F419
:100D0000C5F120051EBF22FA05FC44EA0C0420357B
:100D100056EA044C4FEA144418BF641C4FF0000814
:100D20004FF00009904271EB030C39D3002919BF31
:100D3000B1FA81F701FA07F6B0FA80F700FA07F680
:100D4000C7F120071EBF20FA07FC46EA0C06203731
:100D5000B6FBF4FCA7EB0507103F07F01F0BCBF128
:100D600020062CFA06F60CFA0BFB44BFB34600260D
:100D7000202FA4BF5E464FF0000B5BEA060C08BFB5
:100D80004FF0010B19EB0B0948EB0608ABFB027C9B
:100D900006FB02CC0BFB03CCC01B71EB0C01C1E7C3
:100DA0000B46024641464846BDE8F08B13B5084362
:100DB00018BF4FF0FF300146AFF30080BDE81C4084
:100DC0007047032A40F2308010F0030C00F01580C9
:100DD00011F8013BBCF1020F624498BF11F801CB3E
:100DE00000F8013B38BF11F8013BA2F1040298BFA3
:100DF00000F801CB38BF00F8013B11F0030300F00D
:100E00002580083AC0F0088051F8043B083A51F8B0
:100E100004CBA0E80810F5E7121D5CBF51F8043BB5
:100E200040F8043BAFF30080D20724BF11F8013B28
:100E300011F801CB48BF11F8012B24BF00F8013B8A
:100E400000F801CB48BF00F8012B704710B5203ADD
:100E5000C0F00B80B1E81850A0E81850B1E8185065
:100E6000A0E81850203ABFF4F5AF5FEA027C24BF37
:100E7000B1E81850A0E8185044BF18C918C0BDE820
:100E800010405FEA827C24BF51F8043B40F8043BE9
:100E900008BF7047D20728BF31F8023B48BF11F89E
:100EA000012B28BF20F8023B48BF00F8012B7047F8
:100EB00002F0FF0343EA032242EA024200F002B8D2
:100EC0004FF0000200B5134694469646203922BFE3
:100ED000A0E80C50A0E80C50B1F12001BFF4F7AF2E
:100EE000090728BFA0E80C5048BF0CC05DF804EB10
:100EF000890028BF40F8042B08BF704748BF20F87E
:100F0000022B11F0804F18BF00F8012B704770477B
:100F10007047704700487047780500207047704759
:100F20007047704738B504460A4600206946AFF35B
:100F30000080002808BF38BD02460099204600F016
:100F400075F8012038BD012000F08AB8F8B5AFF37C
:100F50000080054600200C460C2000BF0646A8195C
:100F6000A0420DD9324669460020AFF30080070049
:100F700008BF00F075F80098A04218BF0546C419D4
:100F8000FFF7C8FF05600746F01D20F0070046196F
:100F9000284600F00AF8B44208BFF8BDA21B31464B
:100FA0003868BDE8F84000F041B8002101604160B8
:100FB00070470C20704770B50446051FFFF7AAFF65
:100FC0000068002C14BF446870BD002C18BFAC42F0
:100FD0003CBF20466468F8D301680A18AA4218BFCB
:100FE000456003D12A68054611440160286841190B
:100FF000A1421CBF6C6070BD6168696021680844D3
:10100000286070BD10B500F00DF8006810BD10B577
:10101000044600F007F8046010BD00000048704767
:1010200070050020004870477005002003464068A6
:101030008C46002818BF88423CBF03464068F8D35E
:1010400018681844884207D00CF1030020F007000C
:10105000001D411A521A0146081D0A60FFF7ABBF76
:1010600010B500F039F8BDE8104000F02FB8704717
:101070007546FFF7D3FFAE4605006946534620F09C
:101080000700854618B020B5FFF716F9BDE82040E7
:101090004FF000064FF000074FF000084FF0000B34
:1010A000AC46ACE8C009ACE8C009ACE8C009ACE8A3
:1010B000C00921F007018D46704710B50446AFF313
:1010C00000802046BDE81040FFF7E1B8002801D0BD
:1010D00000F02AB87047000010B5012805D00021A3
:1010E00003A000F027F8012010BD09A1F8E70000D7
:1010F00053494752544D454D3A204F7574206F6601
:101100002068656170206D656D6F72790000000068
:101110003A2048656170206D656D6F727920636F4C
:10112000727275707465640001491820ABBEFEE7E9
:101130002600020070B505460C460A2000E06D1C32
:1011400000F011F835B128780028F8D102E0641CCD
:1011500000F009F814B120780028F8D1BDE87040FB
:101160000A20AFF3008008B569468DF8000003201F
:10117000ABBE08BD82B0019042F20030C4F2010063
:1011800000900099486820F4403048600198426817
:10119000009948681043486001980168486820F445
:1011A00080704860019801680269486840EA02203E
:1011B000486001980168486820F0407048600198D4
:1011C000016882684868104348600198016888682F
:1011D00020F40060886001980168C2688868104344
:1011E00088600198806A0121C0F60071884219D098
:1011F000FFE701980168886820F0706088600198B6
:101200000168826A8868104388600198016888686C
:1012100020F04050886001980168C26A88681043D5
:1012200088600CE001980168886820F07060886030
:1012300001980168886820F040508860FFE70198B5
:101240000168886820F0020088600198027E0168C9
:10125000886840EA42008860019890F82000C8B190
:10126000FFE701980168486840F400604860019811
:101270000168486820F46040486001980168426A4B
:101280004EF20000CFF6FF7000EB42324868104388
:10129000486006E001980168486820F400604860F2
:1012A000FFE701980168C86A20F47000C8620198DD
:1012B0000168C2690020CFF6F07000EB0252C86AE4
:1012C0001043C86201980168886820F40070886043
:1012D000019890F830200168886840EA42208860D0
:1012E00001980168886820F480608860019801682E
:1012F0004269886840EA8220886002B07047000036
:1013000080B50020C4F202001021012203F0C0FDCC
:1013100080BD000080B50020C4F202001021002230
:1013200003F0B6FD80BD000080B588B000208DF8C8
:101330001E00FFF7EFFF8020049000F0D1FA552047
:10134000059000F0CDFA059800F0CAFA8DF81E005D
:10135000FFF7D6FF9620069001F022F9FFF7DAFF9B
:10136000049800F0BDFA059800F0BAFA059800F06C
:10137000B7FA8DF81E00FFF7C3FF069801F010F9C9
:10138000FFF7C8FF7E20B62100F012FBFFF7B8FF81
:10139000502001F0F3F8FFF7BDFF049800F0A0FA29
:1013A000059800F09DFA059800F09AFA8DF81E0055
:1013B000FFF7A6FF069801F0F3F8FFF7ABFF0498DC
:1013C00000F08EFA059800F08BFA059800F088FA84
:1013D0008DF81E00FFF794FF069801F0E1F89DF8E4
:1013E0001E001E2804D0FFE7FF208DF81F005CE0E0
:1013F00000208DF81D00FFE79DF81D00052850DC3A
:10140000FFE7FFF787FF9DF81D0000EB400240F269
:101410000000C2F2000003908118805C497800F05F
:10142000C7FAFFF76DFF9620029001F0B9F8FFF7B9
:1014300071FF03989DF81D1001EB4101405C40F0E5
:10144000800000F04DFA5520019000F049FA019813
:1014500000F046FA8DF81E00FFF752FF029801F0E7
:101460009FF803999DF81E009DF81D2002EB420293
:101470001144497888420DD0FFE79DF81D0000EB2C
:10148000400140F20000C2F20000084480788DF86C
:101490001F000AE0FFE79DF81D0001308DF81D00D8
:1014A000AAE700208DF81F00FFE79DF81F0008B095
:1014B00080BD000080B540F20040C4F2020001226D
:1014C000114603F0E5FC80BD80B540F20040C4F257
:1014D00002000121002203F0DBFC80BD80B586B054
:1014E000002002908DF81600FFF7EEFF02980DF134
:1014F0001601039100F0E2F9FFF7DCFF962004905B
:1015000001F04EF8FFF7E0FF0298039900F0D6F9DA
:10151000FFF7D0FF049801F043F8FFF7D5FF142040
:10152000B62100F045FAFFF7C5FF502001F026F87C
:10153000FFF7CAFF0298039900F0C0F9FFF7BAFF5E
:10154000049801F02DF8FFF7BFFF0298039900F00F
:10155000B5F9FFF7AFFF049801F022F89DF81600E7
:101560000F2804D0FFE7FF208DF8170053E000207C
:101570008DF81500FFE79DF81500052847DCFFE70B
:10158000FFF7A2FF9DF8150000EB400240F2182083
:10159000C2F2000001908118805C497800F008FADE
:1015A000FFF788FF9620009000F0FAFFFFF78CFF0E
:1015B00001989DF8151001EB4101405C0DF11601F9
:1015C00000F07CF9FFF776FF009800F0E9FF019941
:1015D0009DF816009DF8152002EB4202114449784F
:1015E00088420DD0FFE79DF8150000EB400140F266
:1015F0001820C2F20000084480788DF817000AE035
:10160000FFE79DF8150001308DF81500B3E70020C5
:101610008DF81700FFE79DF8170006B080BD0000A9
:1016200080B584B00390002002900190FFF772FE15
:10163000922000F055F9122001A90091062200F035
:101640001BF9FFF75DFE9DF804009DF8051040EAC8
:101650000120039908849DF806009DF8071040EAD0
:101660000120039948849DF808009DF8091040EA7C
:1016700001200399888440F21400C2F2000090ED2A
:10168000000A0399B1F9202001EE102AB8EEC11A20
:1016900020EE010A81ED010A90ED000A0399B1F9EB
:1016A000222001EE102AB8EEC11A20EE010A81EDC7
:1016B000020A90ED000A0398B0F9241001EE101A06
:1016C000B8EEC11A20EE010A80ED030AFFF722FEF0
:1016D000A22000F005F900992220022200F0CCF8A7
:1016E000FFF70EFE9DF804009DF80510C00040EACB
:1016F0005110039988850398B0F92C00B0F5806FDC
:1017000006DBFFE70399888DA0F500608885FFE779
:101710000398B0F92C1000EE101AB8EEC00AB4EE1F
:10172000001A20EE010AB3EE071A30EE010A80ED2E
:10173000070AFFF7C9FE002001A9082200F09CF863
:10174000FFF7B8FE9DF804000F2819D1FFE79DF8B8
:1017500006009DF8071040EA01200399C8849DF80F
:1017600008009DF8091040EA0120039908859DF8BA
:101770000A009DF80B1040EA012003994885FFE715
:1017800040F21800C2F2000090ED000A0399B1F98E
:10179000262001EE102AB8EEC12A91ED0C1A20EE97
:1017A000020A30EE410A81ED040A90ED000A039925
:1017B000B1F9282001EE102AB8EEC12A91ED0D1AD8
:1017C00020EE020A30EE410A81ED050A90ED000A92
:1017D0000398B0F92A1001EE101AB8EEC12A90ED64
:1017E0000E1A20EE020A30EE410A80ED060A04B01D
:1017F00080BD000080B582B000208DF80700FFE7B3
:10180000FFF792FD01469DF8070008438DF8070099
:10181000FFF764FE01469DF8070008438DF80700B6
:10182000022000F0ABFEFFE79DF807000028E7D19B
:10183000FFE740F2D050C2F2000000F003F802B01F
:1018400080BD000081B00090009943F29850C3F62B
:1018500050300863009948F67520CBF65F30486336
:10186000009941F66F30C3F69D20886300990120EE
:10187000087001B07047000080B584B08DF80F008B
:1018800002918DF807209DF80F0040F0800000F0D5
:1018900027F8FFE79DF8070070B1FFE7552000F03B
:1018A0001FF8029908700298013002909DF8070015
:1018B00001388DF80700EDE704B080BD80B582B037
:1018C0008DF8070000919DF8070040F0800000F0BF
:1018D00007F8552000F004F80099087002B080BDA8
:1018E00080B582B08DF8070000208DF806006946AB
:1018F0004FF47A70086042F6F070C2F200000DF109
:1019000007010DF10602012305F00CFC9DF806000D
:1019100002B080BD80B582B08DED010ADDED010A17
:1019200041F21000C2F200009FED1F0A09F08EFE86
:10193000FFE741F21000C2F2000090ED0D0A9FEDAA
:101940001B1AB4EE410AF1EE10FA09DDFFE741F28D
:101950001001C2F200010020C4F2FA40486313E013
:1019600041F21000C2F2000090ED0D0AB5EE400AFF
:10197000F1EE10FA07DAFFE741F21001C2F20001BE
:1019800000204863FFE7FFE7FFE741F21000C2F2E3
:10199000000090ED0D0ABDEEC00A10EE100A07F02F
:1019A00055F902B080BD00BF000020420000FA449B
:1019B00080B582B08DF807008DF806109DF80700FD
:1019C000FFF78EFF9DF80600FFF78AFF02B080BD8B
:1019D00080B59AB010A804902821FFF771FA0499F5
:1019E00001221892002005901690179210901190E5
:1019F0001290139015901490199042F6B400C2F210
:101A0000000001F031FF18B1FFE700F00DFEFFE725
:101A100042F6B400C2F20000029002F0D7FC029835
:101A2000022101F03FFE06A803902821FFF748FAA3
:101A3000039901220E9200200C900D9206900790BF
:101A4000089009900E200B900A920F9042F6DC004D
:101A5000C2F2000001F008FF18B1FFE700F0E4FD5A
:101A6000FFE742F6DC00C2F20000019002F0AEFC9B
:101A70000198102101F016FE1AB080BD81B00090CF
:101A80004EF6FC51CEF20001086840F0807008600C
:101A900041F20401CEF200010020086041F2000290
:101AA000CEF20002116841F001011160009944F288
:101AB0004022C0F20F024A4340F25C61C2F20001D0
:101AC0000A600A6844F6D353C1F26203A2FB0332F0
:101AD000920940F26063C2F200031A6009684DF691
:101AE0008362C4F21B32A1FB0221890C40F26462C2
:101AF000C2F20002116040F26861C2F200010860A7
:101B000001B0704780B582B043F2F010C2F200001D
:101B1000016804316B4627221A6040F60002C2F2C7
:101B2000000202F127030CF037FA43F2AC10C2F2C4
:101B30000000016804316B4612221A6040F6987268
:101B4000C2F2000202F112030CF026FA02B080BDCC
:101B500080B582B043F24800C2F20000019005F067
:101B6000DFFD0198002106F031FA02B080BD0000CF
:101B7000FFE7FEE780B542F6B400C2F2000002F0D3
:101B800041F880BD80B584B003900291039802991A
:101B900040F28802C2F200023C3200F07DFC039861
:101BA000029940F25832C2F200020192303200F043
:101BB000DFF9019A0398029900F0DAF904B080BDC8
:101BC00080B542F6DC00C2F2000002F01BF880BDD6
:101BD00080B582B0019000910198009940F288028E
:101BE000C2F2000200F058FC01980068B0F5047FD2
:101BF0001BD1FFE700984079C0F3400140F26C60D0
:101C0000C2F2000081700099497901F00101017070
:101C10000099897900EE101AB8EEC00AB2EE041AE3
:101C200080EE010A80ED0E0AFFE702B080BD0000E1
:101C300080B543F23420C2F2000044F6DC11C0F655
:101C40000101012211F0DCFB80BD000084B08DF8A1
:101C50000F000291ADF806209DF80F00014600919B
:101C600023281DD80099DFE801F012131415161B64
:101C70001B1B1B1B1B1B1B1B1B1B1B1B1B1B1B1BB4
:101C80001B1B1B1B1B1B1B1B1B1B1718191A08E0FC
:101C900007E006E005E004E003E002E001E000E028
:101CA000FFE7002004B070470020704780B582B085
:101CB00042F24850C2F20000009041F6A841C2F240
:101CC0000001002201920CF051FD009841F2A84160
:101CD000C2F200010CF02CFD019802B080BD0000A2
:101CE00080B584B003900291039890F8220042F2EC
:101CF0003C51C2F200010870039890F8230048702C
:101D0000039890F824008870039890F82500C87014
:101D1000039942F24850C2F2000001900CF008FD15
:101D200001980CF0ABFC0399029A42F2C840C2F24F
:101D3000000010F031F9002004B080BD83B00290A3
:101D400001918DF8032000208DF802009DF902001A
:101D500003B0704780B586B00490ADF80E10002037
:101D60008DF80D0042F24850C2F20000D0F8BC02DB
:101D700002900298D0F8140220B1FFE701208DF8FC
:101D8000170013E00499BDF80E2042F24850C2F249
:101D9000000001900CF0EAFC01980CF0F1FD8DF8C8
:101DA0000D009DF80D008DF81700FFE79DF8170056
:101DB00006B080BD10B582B040F69E01C2F20001AF
:101DC000087A00F001024FF425735A43C0F3400033
:101DD00000FB132042F2A84EC2F2000EBEF804200F
:101DE000024440F24C50C2F20000B0F806C002EBD0
:101DF0000C04027D02F0010C1CFB034CC2F34002F8
:101E000002FB13CC40F26C62C2F20002A2F824C0C2
:101E100091F808C0CCF3C0045C43CCF3800C0CFBFD
:101E2000134CBEF806E0F444B0F804E0E644007D4C
:101E3000C0F3C00C1CFB03ECC0F3800000FB13C01C
:101E4000D08440F24000C2F200004FF4447343607B
:101E500092F82530037792F82430437792F82730B0
:101E6000837792F82630C37792F81DC0D37F9B0109
:101E700043EA0C1340F6D07CC2F2000CCDF804C04B
:101E80009CF80FC00CF0010C43EACC0342F2C84CA2
:101E9000C2F2000C9CF83BC00CF0010C43EA8C032E
:101EA00080F82030127F80F821204A7A80F82220A2
:101EB000097A80F823100FF02DFE019940F21C00E2
:101EC000C2F200004FF400724260CA7A02778A7A46
:101ED00042774A7A8277097AC1770FF01BFE02B007
:101EE00010BD000080B582B0019040F26C61C2F27A
:101EF0000001002081F82000C877487781F8210090
:101F0000FFE710F0E5FC40F2B461C2F200010860A6
:101F1000FFF750FF08F0DCFB012010F0A7FCF0E712
:101F200081B00090009890F82000322807DCFFE78D
:101F3000009890F82000B0F1FF3F13DCFFE7009914
:101F4000888C013088840098808CB0F5FA7F08DD99
:101F5000FFE70099022081F828000099002088847A
:101F6000FFE703E0009900208884FFE701B0704795
:101F700080B584B0039002910192039800680199A2
:101F80008968884201D0FFE793E00298807901993F
:101F900081F8200002980178407840EA01200199F8
:101FA000088302988178C07840EA01200199C882AC
:101FB00002980179407940EA01200199488201980C
:101FC000FFF7AEFF0198007C00F0010001283DD032
:101FD000FFE701988068B0F5017F21D9FFE70198FC
:101FE000007870B9FFE701994FF4FF7048600199DC
:101FF0008A684FF6F630CFF6FF7000EB42000873A8
:102000000DE0019940F2FF10486001998A684FF68F
:10201000F630CFF6FF7000EB42000873FFE714E0E4
:1020200001988068B0F5007F0ED9FFE701994FF461
:102030000070486001998A684FF6FE30CFF6FF7055
:1020400000EB42000873FFE7FFE7FFE70198007825
:102050000146009140B1FFE70098012810D0FFE74A
:102060000098022818D023E001981030B7EE000A3B
:102070004FF4005110F056F9019880ED070A18E06E
:10208000019810309FED0D0A4FF4005110F016FA30
:10209000019880ED070A0CE0019810309FED060AC8
:1020A0004FF4005110F00AFA019880ED070A00E0A1
:1020B000FFE704B080BD00BF0000B4422CA09941EE
:1020C00080B542F6C410C2F2000002F079FA80BD79
:1020D00080B542F62420C2F2000002F071FA80BD01
:1020E00080B542F60410C2F2000002F069FA80BD29
:1020F00080B542F68420C2F2000002F061FA80BD91
:1021000080B542F66410C2F2000002F059FA80BDB8
:1021100082B001900198007810384AF6AB21CAF6D7
:10212000AA21A0FB011000090090009944F6E010DC
:10213000C0F60100405C0199C8650098042807D3E7
:10214000FFE701990868042262F30900886506E048
:102150000199086840F2FF3290438865FFE70198D3
:10216000806D02B07047000086B0059000208DF8A9
:1021700013000598806A03900598806910BBFFE7FB
:102180000398029003281BD80299DFE801F0020DA2
:102190000218059890F82F00C00720B1FFE7012032
:1021A0008DF81300FFE70CE00598C06AB0F1C07F1E
:1021B00004D1FFE701208DF81300FFE701E000E004
:1021C000FFE745E005988069B0F5005F25D1FFE79E
:1021D0000398019003281ED80199DFE801F0020658
:1021E000021101208DF8130016E0059890F82F00D9
:1021F000C00720B1FFE701208DF81300FFE70BE0D7
:102200000598C06AB0F1C07F04D1FFE701208DF8C6
:102210001300FFE700E0FFE719E0039800900328B0
:1022200004D3FFE70098032804D00EE001208DF8C6
:1022300013000BE0059890F82F00C00720B1FFE7CE
:1022400001208DF81300FFE700E0FFE7FFE7FFE75D
:102250009DF8130006B0704780B590B00F900E91B6
:102260008DED0D0ACDED0C0A8DED0B1ACDED0A1A90
:102270008DED092A0E980078002873D1FFE79DEDB7
:102280000D0A0E9890ED041AF1EE410A102010F09C
:1022900023FAADF822009DED0C0A0E9890ED051A78
:1022A000F1EE410A0C20029010F016FA0146029855
:1022B000ADF820109DED090A0E9991ED061AF1EE88
:1022C000410A10F009FA01460298ADF81E109DED82
:1022D0000B0ADFED4F0ACDED010A9FED4E1A10F00B
:1022E000FBF9DDED010A01460298ADF81C109DEDE9
:1022F0000A0AB1EE041A10F0EFF9ADF81A000E98C0
:1023000040680F9948609DF823000F9908779DF861
:1023100022000F994877BDF8200000090F998877AF
:10232000BDF820109DF81D0040EA01100F99C877F4
:102330009DF81C000F9981F82000BDF81A000009D3
:102340000F9981F82100BDF81A109DF81F0040EA8E
:1023500001100F9981F822009DF81E000F9981F855
:1023600023004FE00E98007801282DD1FFE70DA83B
:1023700005900CA804900E9840680F994860059845
:1023800000780F990877059840780F994877059855
:1023900080780F9988770598C0780F99C877049846
:1023A00000780F9981F82000049840780F9981F8FF
:1023B0002100049880780F9981F822000498C07851
:1023C0000F9981F823001CE00E980078022817D19D
:1023D000FFE70CA803900E9840680F994860039897
:1023E00000780F990877039840780F9948770398F9
:1023F00080780F9988770398C0780F99C877FFE79E
:10240000FFE7FFE70F980FF085FB10B080BD00BF1E
:10241000000000000000FA4380B584B003900291F0
:102420008DF8072002984068039948600399FF20BF
:10243000087703994877039988770399C8770399B0
:1024400081F82000039981F82100039981F8220086
:102450009DF807000146009140B1FFE70098012870
:1024600009D0FFE7009802280AD00EE00399FC206B
:1024700081F823000AE00399FD2081F8230005E09C
:102480000399FE2081F8230000E0FFE703980FF096
:1024900041FB04B080BD000080B584B00390029180
:1024A00001920398006801998968884201D0FFE78A
:1024B0005DE0029800780009019948770298417818
:1024C000807840EA01200199C8830299C878097987
:1024D000000140EA111001990884029801794079BD
:1024E00001F00F0140EA0120019948840199488CCC
:1024F000D1ED060AB1EE600A0C21009110F0B2FF96
:10250000019880ED0B0A0199C88BD1ED040AB1EE58
:10251000600A102110F0A6FF0099019880ED090AC9
:10252000019A108CD2ED050AB1EE600A10F09AFF04
:10253000019880ED0A0A019890ED090A9FED0D1AA5
:1025400020EE010A80ED0E0A0298807900EE100A52
:10255000B8EE400A019880ED0C0A0298C07900EEAE
:10256000100AB8EE400A019880ED0D0AFFE704B0AA
:1025700080BD00BFE12E65427047000080B582B08B
:10258000019002F09DFC0090FFE702F099FC009999
:10259000401A0199884201D2FFE7F6E702B080BDF8
:1025A00080B582B0019006F037FB0090FFE706F09F
:1025B00033FB0099401A0199884201D2FFE7F6E700
:1025C00002B080BD80B582B001900020009042F240
:1025D0002450C2F20000B3EE040AF3EE0A0A06F039
:1025E0005DFDFFE710F074F9009043F23420C2F271
:1025F00000000FF047FB42F22450C2F200000FF03F
:1026000085FB40F69E00C2F2000007F0B3FA0AF024
:10261000B9FE052010F02AF9E4E7000080B520207B
:1026200002F03EFA80BD000081B0EFF3108072B678
:102630000090FFE7FEE7000084B08DED030A9DEDFA
:10264000030AB6EE001A20EE010A8DED020A039885
:10265000019001980090009945F68620C5F63770E4
:10266000A0EB61000090009801909DED010A9DEDA6
:10267000021A21EE001A21EE002AB7EE081A31EEF6
:10268000421A20EE010A8DED010A9DED010A04B007
:102690007047000080B582B001900091009840F230
:1026A000B861C2F200010860012048600020886023
:1026B000019800F0ADFC18B1FFE7FFF7B5FFFFE7A9
:1026C000019800F005FF01980A2100F06BFE0198C7
:1026D00000F0AAFD80B202B080BD000080B584B0D9
:1026E00003A801900020ADF80A0042F66C00C2F287
:1026F00000000821FFF7CEFF01460198ADF80A104F
:10270000BDF80A1000EE101AB8EE400A40F2485127
:10271000C2F2000191ED001A20EE010A9FED041AA9
:1027200020EE010A80ED000A90ED000A04B080BDA1
:102730005D74214182B000900099B1F91200B1F9A5
:102740001410884213D1FFE70099C88C0130C88467
:102750000098C08CB0F5FA7F08DDFFE700990120F2
:1027600081F8280000990020C884FFE703E0009961
:102770000020C884FFE70099488A8882009890F872
:10278000281090F8290088420BD0FFE7009991F8B3
:10279000280081F82900009890F828008DF807009B
:1027A00006E00099002081F828008DF80700FFE777
:1027B0009DF8070002B0704780B582B00020ADF8E8
:1027C000060042F62400C2F200001021FFF762FF6B
:1027D000ADF80600BDF8060000EE100AB8EE400A9B
:1027E00040F24850C2F2000090ED001A20EE010ABB
:1027F0008DED000A9DED000A9FED081A30EE010AEA
:102800009FED071A20EE010AB3EE091A30EE010A15
:102810008DED000A9DED000A02B080BD5C8F42BFC5
:102820000000C84382B000900098017D407D88423E
:1028300008D0FFE70099087D48750098007D8DF865
:10284000070007E00099002008750098007D8DF8CA
:102850000700FFE79DF8070002B0704780B584B01D
:1028600047F61020C1F6FF700068039047F6142069
:10287000C1F6FF700068029047F61820C1F6FF709D
:10288000006801900199039808440390039888B167
:10289000FFE7039840F22C51C2F20001009102318F
:1028A000082206F043FC009902981231042206F037
:1028B0003DFCFFE704B080BD80B582B040F6145007
:1028C000C2F2000040F20012C2F2000200920121A6
:1028D000019109F059F80098019900F11C0240F6A5
:1028E0008450C2F2000009F04FF80098019900F1FD
:1028F000380240F67420C2F2000009F045F8009852
:10290000019900F1540240F6E420C2F2000009F0FF
:102910003BF80098019900F1700240F69410C2F261
:10292000000009F031F80098019900F18C0240F69E
:102930000420C2F2000009F027F80098019900F184
:10294000A80240F6B400C2F2000009F01DF8009899
:10295000019900F1C40240F62410C2F2000009F00F
:1029600013F840F2B870C2F20000426840F2C86149
:10297000C2F200010A60006848604FF07E50C1F862
:1029800084004DF20A70C3F62340C1F88000002095
:10299000C4F2C810C8610020CCF2F010086202B086
:1029A00080BD000040F2C861C2F200010020086151
:1029B0004861704740F26C60C2F20000407F00281E
:1029C0006CD1FFE740F26C60C2F2000090F820008A
:1029D000D0BBFFE742F2A842C2F20002B2F9000007
:1029E00040F24C51C2F20001B1F90030184400EE3F
:1029F000100AB8EEC01A40F2C860C2F2000090EDB2
:102A0000000A9FEDCF2A21EE021A30EE010A80ED76
:102A1000000AB2F9022000EE102AB8EEC00AB1F99D
:102A2000021001EE101AB8EEC11A9FEDC62A21EE6F
:102A3000021A20EE020A30EE011A90ED010A30EE81
:102A4000410A80ED010A28E040F69E01C2F2000131
:102A5000B1F9000000EE100AB8EEC01A40F2C860EA
:102A6000C2F2000090ED000A9FEDB42A21EE021A96
:102A700030EE010A80ED000AB1F9021000EE101AE2
:102A8000B8EEC01A90ED010A9FEDAF2A21EE021AAE
:102A900030EE010A80ED010AFFE784E040F26C604D
:102AA000C2F20000407F01287CD1FFE742F2C8401B
:102AB000C2F2000090ED0D0AB5EE400AF1EE10FAF8
:102AC00011DDFFE742F2C841C2F20001CA6B40F2D9
:102AD000C860C2F20000026091ED120AB1EE400A35
:102AE00080ED010A5DE040F2B871C2F200014A686F
:102AF00040F2C860C2F2000002600968416042F220
:102B0000A843C2F20003B3F9001040F24C52C2F2E3
:102B10000002B2F900C0614400EE101AB8EEC00A1B
:102B200040F69E01C2F20001B1F900C001EE10CAE8
:102B3000B8EEC11A9FED812A21EE021A9FED802A7C
:102B400020EE020A30EE011A90ED000A30EE010A82
:102B500080ED000AB3F9023000EE103AB8EEC00A78
:102B6000B2F9022001EE102AB8EEC11A9FED752AC3
:102B700021EE021A20EE020A30EE011AB1F902101B
:102B800000EE101AB8EEC00A9FED6F2A20EE020A7E
:102B900030EE411A90ED010A30EE010A80ED010A93
:102BA000FFE7FFE7FFE740F2C860C2F2000090EDE8
:102BB000000A9FED661AB4EE410AF1EE10FA0DDD3F
:102BC000FFE740F2C860C2F2000090ED000A9FEDFE
:102BD000621A30EE010A80ED000A1BE040F2C86084
:102BE000C2F2000090ED000A9FED591AB4EE410ABE
:102BF000F1EE10FA0DDAFFE740F2C860C2F2000011
:102C000090ED000A9FED531A30EE010A80ED000AA4
:102C1000FFE7FFE7FFE740F2C860C2F2000090ED77
:102C2000010A90ED071AB4EE410AF1EE10FA07DD41
:102C3000FFE740F2C861C2F20001C869486015E0D0
:102C400040F2C860C2F2000090ED010A90ED081A4F
:102C5000B4EE410AF1EE10FA07DAFFE740F2C8617C
:102C6000C2F20001086A4860FFE7FFE7FFE740F2B1
:102C70006C60C2F20000007800F00100012809D069
:102C8000FFE740F26C60C2F20000417F807F884223
:102C90000FD0FFE740F2B870C2F20000426840F285
:102CA000C861C2F200010A600068486000208861C3
:102CB00043E040F2C860C2F2000090ED000A40F22A
:102CC000B871C2F2000191ED011A30EE410A80EDB7
:102CD000060A90ED060A9FED1D1AB4EE410AF1EEC8
:102CE00010FA0DDDFFE740F2C860C2F2000090ED7F
:102CF000060A9FED191A30EE010A80ED060A1BE064
:102D000040F2C860C2F2000090ED060A9FED101A72
:102D1000B4EE410AF1EE10FA0DDAFFE740F2C860B6
:102D2000C2F2000090ED060A9FED0A1A30EE010A89
:102D300080ED060AFFE7FFE7FFE770476F1203BB6E
:102D4000348037BA6F12833917B751BB0000344350
:102D5000000034C30000B4430000B4C380B590B099
:102D600040F26C60C2F20000407F002872D1FFE7A1
:102D700040F2C860C2F200000F9090ED060A40F6E3
:102D80001450C2F200000B90DFED8A0A08F05EFCDE
:102D90000B990F9891ED0D0A90ED1E2A90ED201AD7
:102DA00030EE420A20EE010A80ED1D0A91ED0D0A77
:102DB00090ED1D1A30EE010A40F2B870C2F2000028
:102DC0000C9090ED051A9FED7C2AC1EE020A40F6A8
:102DD0008450C2F200000A9008F038FC0A9B0B9A5B
:102DE0000C980F995B6B0B61526B8A6791ED010A2E
:102DF000D0ED000A40F67420C2F200000E9008F0F8
:102E000025FC0E990F9891ED0D0A90ED1F2A90ED7B
:102E1000211A30EE420A20EE010A80ED1C0A91EDE3
:102E20000D0A90ED1C1A30EE010A40F28800C2F241
:102E30000000D0ED190A40F6E420C2F200000D9027
:102E400008F004FC0D9A0E980F99526B4A61406B82
:102E5000C8677AE040F26C60C2F20000407F01284F
:102E600072D1FFE740F2C860C2F20000099090ED15
:102E7000060A40F69410C2F200000590DFED4D0AFC
:102E800008F0E4FB0599099891ED0D0A90ED1E2AD2
:102E900090ED201A30EE420A20EE010A80ED1D0A64
:102EA00091ED0D0A90ED1D1A30EE010A40F2B87056
:102EB000C2F20000069090ED051A9FED3F2AC1EE88
:102EC000020A40F60420C2F20000049008F0BEFBA3
:102ED000049B059A069809995B6B0B61526B8A6794
:102EE00091ED010AD0ED000A40F6B400C2F20000F4
:102EF000089008F0ABFB0899099891ED0D0A90ED48
:102F00001F2A90ED211A30EE420A20EE010A80EDD0
:102F10001C0A91ED0D0A90ED1C1A30EE010A40F2E8
:102F20008800C2F20000D0ED190A40F62410C2F267
:102F30000000079008F08AFB079A08980999526BDD
:102F40004A61406BC867FFE7FFE740F2C860C2F222
:102F50000000039090ED052A40F28800C2F20000C4
:102F6000019000F13C0140F21C00C2F20000DFEDD4
:102F7000111ACDED021AB0EE610AF0EE610AB0EE60
:102F8000611AFFF769F901200FF070FC0199DDED7E
:102F9000021A039890ED042A40F24000C2F20000A9
:102FA000B0EE610AF0EE610AB0EE611AFFF754F973
:102FB00010B080BD00000000E12E654280B582B0F7
:102FC0000190FFF779FCFFE70FF082FC40F25071AF
:102FD000C2F20001086040F26C60C2F20000407F63
:102FE000022805D0FFE7FFF7E5FCFFF7B7FE0BE08F
:102FF00040F26C60C2F20000407F022803D1FFE77C
:10300000FFF7D0FCFFE7FFE701200FF02FFCDBE725
:1030100085B00390029100200190FFE7039890F89B
:103020003C00012804D1FFE702208DF81300F7E0EF
:103030000399012081F83C00FFE7FFE70298006850
:103040000A281CD3FFE70298008800EB4000A0F19B
:103050001E01072000FA01F203980168C868904336
:10306000C86002998868098801EB41011E3900FA9D
:1030700001F203980168C8681043C86018E002981C
:10308000008800EB4001072000FA01F20398016874
:1030900008699043086102998868098801EB410139
:1030A00000FA01F203980168086910430861FFE71C
:1030B0000298406806281BD8FFE70298406800EB9A
:1030C0008000411F1F2000FA01F203980168486B3D
:1030D0009043486302990888496801EB81010539EA
:1030E00000FA01F203980168486B104348633DE021
:1030F000029840680C281CD8FFE70298406800EB53
:103100008000A0F123011F2000FA01F2039801685A
:10311000086B9043086302990888496801EB8101B4
:10312000233900FA01F203980168086B1043086321
:103130001BE00298406800EB8000A0F141011F20D5
:1031400000FA01F203980168C86A9043C8620299C4
:103150000888496801EB8101413900FA01F20398BE
:103160000168C86A1043C862FFE7FFE742F2003017
:10317000C4F2010000900398006842F20001C4F21A
:10318000010188420BD1FFE702980068122806D19E
:10319000FFE70099486840F480004860FFE7039823
:1031A000006842F20001C4F2010188422ED1FFE71B
:1031B00002980068102805D0FFE7029800681128DF
:1031C00024D1FFE70099486840F400004860029865
:1031D0000068102819D1FFE740F25840C2F2000001
:1031E00000684DF68361C4F21B31A0FB0110800C16
:1031F00000EB800040000190FFE7019820B1FFE75D
:10320000019801380190F8E7FFE7FFE7FFE703992E
:10321000002081F83C00FFE700208DF81300FFE755
:103220009DF8130005B0704781B0009000980068C9
:10323000C06C01B07047000080B584B002900020DF
:103240008DF80700029820B9FFE701208DF80F00E4
:1032500042E00298806A0121C0F60071884201D0E4
:10326000FFE7FFE70298006C50B9FFE7029800F013
:1032700037F8029900204864029981F83C00FFE782
:103280000298006CC006002817D4FFE70298006C73
:1032900040F0020020F48850029908640298FDF77B
:1032A00069FF0299002048640298006C40F0010018
:1032B00020F002000299086403E001208DF8070065
:1032C000FFE7FFE70299002081F83C00FFE79DF847
:1032D00007008DF80F00FFE79DF80F0004B080BDD8
:1032E00080B58AB00990002008900790069005905C
:1032F00004900998006842F20001C4F2010188427A
:1033000012D1FFE7FFE70020039043F64400C4F228
:103310000200016841F480710160006800F480706F
:1033200003900398FFE73AE00998006842F2002111
:10333000C4F20101884231D1FFE7FFE7002002908B
:1033400043F64400C4F20200016841F48061016068
:10335000006800F4806002900298FFE7FFE7002019
:10336000019043F63000C4F20200016841F02001F0
:103370000160006800F0200001900198FFE74FF421
:1033800080600490032005900020069041F20040E8
:10339000C4F2020004A901F09FFBFFE7FFE70AB0B7
:1033A00080BD000080B584B00290019100200090A3
:1033B0000298006880684005002816D5FFE702984B
:1033C00000688068C00500280FD5FFE70299086CE7
:1033D00040F020000864FFE70299002081F83C00DB
:1033E000FFE701208DF80F006DE001F069FD00900E
:1033F000FFE702980068006800F00200022829D068
:10340000FFE70198013020B3FFE7019840B1FFE7E3
:1034100001F056FD0099401A0199884218D9FFE73A
:1034200002980068006800F0020002280FD0FFE751
:103430000299086C40F004000864FFE7029900203C
:1034400081F83C00FFE703208DF80F003BE0FFE729
:10345000FFE7CEE7029801686FF01200086002995A
:10346000086C40F40070086402980068806810F0EE
:10347000405F24D1FFE70298007E00BBFFE702987F
:103480000068C06A10F4700F07D0FFE70298006868
:1034900080684005002812D4FFE70299086C20F4E8
:1034A000807008640298006CC004002806D4FFE70E
:1034B0000299086C40F001000864FFE7FFE7002074
:1034C0008DF80F00FFE79DF80F0004B080BD0000ED
:1034D00084B0029000200190FFE7029890F83C0031
:1034E000012804D1FFE702208DF80F00D6E00299F1
:1034F000012081F83C00FFE7FFE702980068806840
:1035000000F0010001281ED0FFE7029801688868DA
:1035100040F00100886040F25840C2F200000068AC
:103520004DF68361C4F21B31A0FB0110800C00EB4F
:1035300040000190FFE7019820B1FFE701980138B2
:103540000190F8E7FFE7029800688068C00700284C
:1035500000F09580FFE70298006C40F4807040F224
:103560000161884302990864029800684068400538
:10357000002809D5FFE70298006C40F4805020F441
:10358000005002990864FFE70298006CC00400280C
:1035900006D5FFE70299486C20F00600486403E076
:1035A000029900204864FFE7FFE70299002081F8B4
:1035B0003C00FFE742F20030C4F2010000900298A4
:1035C00001686FF02200086000984068C006E8BB00
:1035D000FFE70298006842F20001C4F2010188424C
:1035E00024D0FFE70298006842F20011C4F2010102
:1035F000884208D1FFE742F20430C4F201000068BB
:10360000C00698B1FFE70298006842F20021C4F2B8
:103610000101884219D1FFE742F20430C4F20100EF
:10362000006800F01F000F280FD8FFE7029800681D
:10363000806810F0405F07D1FFE702980168886852
:1036400040F080408860FFE7FFE717E002980068DD
:1036500042F20001C4F2010188420ED1FFE7029854
:103660000068806810F0405F07D1FFE702980168AA
:10367000886840F080408860FFE7FFE70AE0029931
:10368000086C40F0100008640299486C40F001009A
:103690004864FFE700208DF80F00FFE79DF80F005A
:1036A00004B0704784B002900191029890F8200015
:1036B0008DF803009DF80300012805D0FFE79DF871
:1036C000030002280AD1FFE7019A029801684869BD
:1036D0001043486100208DF80F0008E00299486A05
:1036E00040F48020486201208DF80F00FFE79DF82C
:1036F0000F0004B07047000088B006900591049256
:103700000393069890F820008DF80700069800684B
:10371000806800900598806808B9FFE700E0FFE73F
:103720009DF80700012806D0FFE79DF80700022852
:1037300040F08D80FFE79DF80300400700280CD47F
:10374000FFE79DF803000007002806D4FFE79DF877
:103750000300C006002871D5FFE70098C0F30160A0
:1037600002900298032809D3FFE70699486A40F4BB
:103770000000486201208DF81F0071E002990120CD
:103780008840039908600598806868B9FFE7059844
:103790000168C06840EA415006990968029A01EB45
:1037A0000211C1F880010EE005994A688868C9686D
:1037B00040EAC200084306990968029A01EB021127
:1037C000C1F88001FFE70598006906990968029A27
:1037D00001EB0211C1F884010598007D01280CD18C
:1037E000FFE706980068029900EB0111D1F8840107
:1037F00040F48070C1F88401FFE70498406806999E
:103800000968029A01EB0211C1F88C010498006862
:1038100006990968029A01EB0211C1F8880106981D
:103820000068029900EB0111D1F8800140F001001D
:10383000C1F8800100208DF81F0011E00699486A48
:1038400040F40010486201208DF81F0008E006993E
:10385000486A40F48020486201208DF81F00FFE78D
:103860009DF81F0008B0704786B00490039104983B
:1038700000680190049890F820008DF803009DF8EE
:103880000300012806D0FFE79DF80300022840F05E
:10389000B080FFE746F20040C4F2000001900199B9
:1038A000D1F8000240F00100C1F800020199D1F8FE
:1038B000000220F47C50C1F800020398426A01998A
:1038C000D1F8000240EA0220C1F8000203984069E2
:1038D00000F01F01012088400290029A0199D1F85E
:1038E0001C029043C1F81C020398C069F0B9FFE7BD
:1038F000029A0199D1F80C029043C1F80C02039A84
:103900009088D168526940EA0140019901EBC201F7
:10391000C1F84002039A10889168526940EA014058
:10392000019901EBC201C1F84402FFE70398C069A5
:1039300001281ED1FFE7029A0199D1F80C02104329
:10394000C1F80C02039A90881168526940EA01405C
:10395000019901EBC201C1F84002039A9089916874
:10396000526940EA0140019901EBC201C1F84402E9
:10397000FFE70398806940B9FFE7029A0199D1F8FF
:1039800004029043C1F8040207E0029A0199D1F8B9
:1039900004021043C1F80402FFE70398006940B92C
:1039A000FFE7029A0199D1F814029043C1F814027A
:1039B00007E0029A0199D1F814021043C1F81402E9
:1039C000FFE70398006A012808D1FFE7029A0199EE
:1039D000D1F81C021043C1F81C02FFE70199D1F88D
:1039E000000220F00100C1F8000200208DF817004D
:1039F00008E00499486A40F48020486201208DF86C
:103A00001700FFE79DF8170006B0704781B00090DF
:103A100001B0704786B0049003910292019304981C
:103A200090F820008DF803009DF80300012806D0CF
:103A3000FFE79DF80300022840F0D780FFE70398D6
:103A400080B9FFE704980068C068800748B9FFE7BD
:103A50000499486A40F40010486201208DF817006C
:103A6000CCE00FE0049800680069800748B9FFE7E0
:103A70000499486A40F40010486201208DF817004C
:103A8000BCE0FFE704980068039900EB0110D0F850
:103A9000B00100F00400029988600298806858B96B
:103AA000FFE704980068039900EB0110D0F8B0011B
:103AB000400D029908600AE004980068039900EB41
:103AC0000110D0F8B001C00802994860FFE70498DF
:103AD0000068039900EB0110D0F8B00100F002007B
:103AE0000299C86004980068039900EB0110D0F8AF
:103AF000B40100F00F00029908610498006803996E
:103B000000EB0110D0F8B40180B2000A029988617C
:103B100004980068039900EB0110D0F8B401000C80
:103B20000299486104980068039900EB0110D0F8ED
:103B3000B8010199087004980068039900EB01101E
:103B4000D0F8B801000A01994870049800680399F8
:103B500000EB0110D0F8B801000C019988700498AE
:103B60000068039900EB0110D0F8B801000E01992C
:103B7000C87004980068039900EB0110D0F8BC01EC
:103B80000199087104980068039900EB0110D0F8BE
:103B9000BC01000A0199487104980068039900EB80
:103BA0000110D0F8BC01000C0199887104980068DC
:103BB000039900EB0110D0F8BC01000E0199C87107
:103BC000039838B9FFE704980168C86840F02000FE
:103BD000C86006E004980168086940F020000861A8
:103BE000FFE700208DF8170008E00499486A40F4C8
:103BF0008020486201208DF81700FFE79DF817002C
:103C000006B0704780B58AB00990002008900998E6
:103C10000068406907900998006840680690099814
:103C200000688068059009980068C0680490099849
:103C300000680069039009980068806902909DF807
:103C40001C00C007002800F09480FFE79DF81400D6
:103C5000C00758B3FFE709980168012088609DF804
:103C600014008007002804D5FFE7099800F0F8FB4E
:103C70001BE09DF814004007002805D5FFE70898D1
:103C800040F4006008900FE09DF814000007002841
:103C900005D5FFE7089840F48050089003E00998A4
:103CA00000F0DAFBFFE7FFE7FFE7FFE79DF815000D
:103CB000C00760B3FFE7099801684FF4807088601F
:103CC0009DF815008007002804D5FFE7099800F04B
:103CD000CFFB1BE09DF815004007002805D5FFE746
:103CE000089840F4005008900FE09DF81500000778
:103CF000002805D5FFE7089840F48040089003E0CD
:103D0000099800F0B1FBFFE7FFE7FFE7FFE79DF849
:103D10001600C00760B3FFE7099801684FF48030D0
:103D200088609DF816008007002804D5FFE70998F1
:103D300000F0A6FB1BE09DF816004007002805D503
:103D4000FFE7089840F4004008900FE09DF8160047
:103D50000007002805D5FFE7089840F48030089058
:103D600003E0099800F088FBFFE7FFE7FFE7FFE7C4
:103D7000FFE79DF81C000007002810D5FFE79DF81D
:103D80001000C006002809D5FFE7089840F400702D
:103D90000890099801681020C860FFE7FFE79DF8C8
:103DA0001C00400700280FD5FFE79DF81000000712
:103DB000002808D5FFE7099801680820C86009981D
:103DC00000F0CCFAFFE7FFE79DF81C008007002811
:103DD0000BD5FFE709980068C068800720B1FFE7AE
:103DE000099800F0BFFAFFE7FFE79DF81C004006C6
:103DF000002810D5FFE79DF80C00C006002809D563
:103E0000FFE7089840F48060089009980168102046
:103E10000861FFE7FFE79DF81C00800600280FD52A
:103E2000FFE79DF80C000007002808D5FFE7099878
:103E3000016808200861099800F0AAFAFFE7FFE787
:103E40009DF81C00C00600280BD5FFE70998006804
:103E50000069800720B1FFE7099800F09DFAFFE7AD
:103E6000FFE79DF81E00800700280FD5FFE79DF8AB
:103E70001800C006002808D5FFE70998016810203F
:103E80004860099800F09EFAFFE7FFE79DF81E00E2
:103E9000C00778B1FFE79DF818000007002808D593
:103EA000FFE70998016808204860099800F0ECFADB
:103EB000FFE7FFE79DF81D000006002840F18D8018
:103EC000FFE79DF818004007002840F18180FFE7D8
:103ED0009DF81D00C00750B1FFE79DF80800C0071E
:103EE00028B1FFE7089840F001000890FFE79DF82F
:103EF0001D00800700280BD5FFE79DF8080080070C
:103F0000002805D5FFE7089840F002000890FFE779
:103F10009DF81D00400700280BD5FFE79DF808001D
:103F20004007002805D5FFE7089840F004000890F6
:103F3000FFE79DF81D000007002848D5FFE79DF822
:103F4000080010F0700F42D0FFE7029800F07000F8
:103F500001460191102814D0FFE70198202815D0C0
:103F6000FFE70198302816D0FFE70198402817D0C6
:103F7000FFE70198502818D0FFE70198602819D072
:103F80001DE0089840F00800089019E0089840F0FB
:103F90001000089014E0089840F0200008900FE00E
:103FA000089840F0400008900AE0089840F080002F
:103FB000089005E0089840F48070089000E0FFE762
:103FC00009980168886920F070008861FFE7FFE7C1
:103FD0000998016804204860FFE7089848B1FFE7A6
:103FE000089A0999486A104348620998FFF70EFD3C
:103FF000FFE70AB080BD000080B584B0029002984F
:1040000020B9FFE701208DF80F00E0E0029890F85A
:10401000200020B9FFE7029800F0DEF8FFE70298E1
:104020000168086840F00100086000F049FF019055
:10403000FFE7029800684068C007A8B9FFE700F0F2
:104040003FFF0199401A0B280DD3FFE70299486AF8
:1040500040F4003048620299052081F820000120D8
:104060008DF80F00B3E0E4E702980168086820F0DB
:104070000200086000F024FF0190FFE7029800684A
:1040800040688007002815D5FFE700F019FF019967
:10409000401A0B280DD3FFE70299486A40F400301C
:1040A00048620299052081F8200001208DF80F0058
:1040B0008DE0E3E70298007E012807D1FFE7029830
:1040C0000168086840F08000086006E00298016816
:1040D000086820F080000860FFE70298407E012811
:1040E00007D1FFE702980168086840F040000860C7
:1040F00006E002980168086820F040000860FFE7C9
:104100000298807E012807D1FFE7029801680868BD
:1041100040F02000086006E002980168086820F07E
:1041200020000860FFE70298C07E012807D1FFE762
:1041300002980168086820F01000086006E0029804
:104140000168086840F010000860FFE70298007FEF
:10415000012807D1FFE702980168086840F00800CD
:10416000086006E002980168086820F0080008600E
:10417000FFE70298407F012807D1FFE70298016816
:10418000086840F00400086006E0029801680868CA
:1041900020F004000860FFE7029B19685A689868DD
:1041A000D3F80CC040EA0C00D3F810C040EA0C0071
:1041B0005B691843013A1043C861029900204862C4
:1041C000029A012182F820108DF80F00FFE79DF878
:1041D0000F0004B080BD000080B590B00F900020AB
:1041E0000E900D900C900B900A900F98006846F27C
:1041F0000041C4F20001884249D1FFE740F2547007
:10420000C2F200000168013101600068012812D18A
:10421000FFE7FFE70020099043F64000C4F20200E8
:10422000016841F000710160006800F000700990C1
:104230000998FFE7FFE7FFE70020089043F630000A
:10424000C4F20200016841F008010160006800F05A
:10425000080008900898FFE703200A9002210B91BC
:10426000002103910C910D9009200E9040F6004022
:10427000C4F202000AA900F02FFC039A1420049053
:10428000052100F0F9FE049800F0ECFE64E00F98C0
:10429000006846F60001C4F2000188425BD1FFE7E6
:1042A000FFE70020079043F64000C4F202000168D7
:1042B00041F080610160006800F08060079007981D
:1042C000FFE740F25470C2F2000001680131016062
:1042D0000068012812D1FFE7FFE70020069043F6AF
:1042E0004000C4F20200016841F000710160006802
:1042F00000F0007006900698FFE7FFE7FFE7002058
:10430000059043F63000C4F20200016841F002015A
:104310000160006800F0020005900598FFE760204A
:104320000A9002200B90002001900C9003200D9029
:1043300009200E9040F20040C4F202000AA900F0E9
:10434000CBFB019A41200290052100F095FE0298D6
:1043500000F088FEFFE7FFE710B080BD81B000905D
:1043600001B0704780B584B00390039840F20C61AF
:10437000C2F200010A1D029201F120030193002103
:10438000FFF748FB01990298FDF7FCFB04B080BDE4
:1043900081B0009001B0704780B584B0039003985D
:1043A00040F23461C2F200010A1D029201F12003C1
:1043B00001930121FFF72EFB01990298FDF708FCFC
:1043C00004B080BD81B0009001B0704780B584B06A
:1043D0000290029890F8200001282FD1FFE702995F
:1043E000022081F8200002980168086820F001008E
:1043F000086000F065FD0190FFE7029800684068E2
:10440000C007A8B1FFE700F05BFD0199401A0B2837
:104410000DD3FFE70299486A40F4003048620299E0
:10442000052081F8200001208DF80F000FE0E4E75F
:104430000299002048628DF80F0008E00299486A4E
:1044400040F40020486201208DF80F00FFE79DF83E
:104450000F0004B080BD000081B0009001B0704733
:1044600081B0009001B0704781B0009001B07047FA
:1044700081B0009001B0704781B0009001B07047EA
:1044800081B0009001B0704781B0009001B07047DA
:1044900080B584B002900298806D019000F010FD0C
:1044A0000090029890F8350002280DD0FFE702999D
:1044B00080204865FFE70299002081F83400FFE77B
:1044C00001208DF80F0055E002980168086820F07F
:1044D0001600086002980168486920F08000486171
:1044E0000298006C20B9FFE70298806C38B1FFE7B2
:1044F00002980168086820F008000860FFE7029849
:104500000168086820F001000860FFE70298006871
:104510000068C007C8B1FFE700F0D2FC0099401A5C
:10452000062811D3FFE7029920204865029903204D
:1045300081F83500FFE70299002081F83400FFE799
:1045400003208DF80F0015E0E0E70298C16D3F20D1
:104550008840019988600299012081F83500FFE7C1
:104560000299002081F83400FFE7FFE700208DF872
:104570000F00FFE79DF80F0004B080BD82B00090EF
:10458000009890F83500022807D0FFE700998020B6
:10459000486501208DF807000EE00099052081F89C
:1045A000350000980168086820F001000860FFE706
:1045B00000208DF80700FFE79DF8070002B0704764
:1045C00080B586B005900020039040F25840C2F2BA
:1045D0000000006848F2B511C1F64E31A0FB011091
:1045E000800A02900598806D0190019800680490FF
:1045F00004980599C96DC840000700281AD5FFE73F
:104600000598006800684007002812D5FFE7059864
:104610000168086820F0040008600598C16D082052
:104620008840019988600599486D40F0010048650F
:10463000FFE7FFE704980599C96DC840C007A0B11E
:10464000FFE7059800684069000600280CD5FFE7E1
:104650000598C16D01208840019988600599486DD1
:1046600040F002004865FFE7FFE704980599C96D2F
:10467000C8404007002814D5FFE705980068006887
:10468000800700280CD5FFE70598C16D04208840FD
:10469000019988600599486D40F004004865FFE77E
:1046A000FFE704980599C96DC840C006002847D5A2
:1046B000FFE7059800680068000700283FD5FFE77E
:1046C0000598C16D102088400199886005980068A0
:1046D0000068400300281AD5FFE7059800680068C5
:1046E0000003002809D4FFE70598006C20B1FFE71C
:1046F0000598016C8847FFE708E00598806C20B1B9
:10470000FFE70598816C8847FFE7FFE716E005980B
:1047100000680068C005002807D4FFE70598016815
:10472000086820F008000860FFE70598006C20B1D9
:10473000FFE70598016C8847FFE7FFE7FFE7FFE722
:1047400004980599C96DC8408006002840F18D8005
:10475000FFE7059800680068C006002840F18480E3
:10476000FFE70598C16D2020884001998860059871
:1047700090F83500052834D1FFE7059801680868EE
:1047800020F01600086005980168486920F0800054
:1047900048610598006C20B9FFE70598806C38B136
:1047A000FFE705980168086820F008000860FFE747
:1047B0000598C16D3F2088400199886005990120C6
:1047C00081F83500FFE70599002081F83400FFE704
:1047D0000598006D20B1FFE70598016D8847FFE758
:1047E0007BE0059800680068400300281AD5FFE7C1
:1047F0000598006800680003002809D4FFE70598C1
:10480000406C20B1FFE70598416C8847FFE708E05E
:104810000598C06B20B1FFE70598C16B8847FFE79B
:10482000FFE720E0059800680068C005002811D463
:10483000FFE705980168086820F0100008600599F6
:10484000012081F83500FFE70599002081F8340048
:10485000FFE7FFE70598C06B20B1FFE70598C16B44
:104860008847FFE7FFE7FFE7FFE70598406DA0B344
:10487000FFE70598406DC00730B3FFE705990520B5
:1048800081F8350005980168086820F0010008608B
:10489000FFE70398013003900299884201D9FFE7AE
:1048A00007E0FFE7059800680068C0070028F0D11E
:1048B000FFE70599012081F83500FFE70599002001
:1048C00081F83400FFE7FFE70598C06C20B1FFE7EF
:1048D0000598C16C8847FFE7FFE706B080BD000080
:1048E00080B586B004900020039000F0E9FA0290B1
:1048F000049820B9FFE701208DF81700A3E0049881
:10490000406A08B1FFE7FFE70499022081F835000B
:10491000FFE70499002081F83400FFE7049801685C
:10492000086820F001000860FFE70498006800684C
:10493000C00790B1FFE700F0C3FA0299401A0628B9
:104940000AD3FFE70499202048650499032081F8E1
:1049500035008DF8170076E0E7E7049800680068F6
:104960000390039848F23F01CFF2100108400390F2
:10497000049900914868D1F808C0CB680A6940EAF8
:104980000C00184310434A6910438A691043CA69EE
:104990001043096A01430398084303900498406A4E
:1049A000042808D1FFE70499C86A096B01430398FA
:1049B00008430390FFE70398049909680860049886
:1049C000006840690390039820F007000390049862
:1049D000416A0398084303900498406A04281AD156
:1049E000FFE70498816A0398084303900498C06A1B
:1049F00080B1FFE70498FDF7B7FB50B1FFE70499DA
:104A0000402048650499012081F835008DF8170091
:104A100019E0FFE7FFE703980499096848610498E3
:104A2000FDF776FB01900498C16D3F208840019905
:104A30008860049900204865049A012182F83510A5
:104A40008DF81700FFE79DF8170006B080BD000045
:104A500080B584B0039000F033FA0290039801907F
:104A60000198013048B1FFE740F26450C2F2000003
:104A70000178019808440190FFE7FFE700F020FA71
:104A80000299401A0199884201D2FFE7F6E704B083
:104A900080BD000081B0ADF8020001B07047000099
:104AA00080B582B0ADF8060043F61440C4F20100B0
:104AB0000068BDF8061008420CD0FFE7BDF80600FC
:104AC00043F61441C4F201010860BDF80600FFF787
:104AD000E1FFFFE702B080BD8EB00D900C91002089
:104AE0000A90099008900B90FFE70B980F2800F2AE
:104AF000CC81FFE70B99012088400A900C98006850
:104B00000A990840099009980A99884240F0B881AA
:104B1000FFE70C98406800F00300012807D0FFE78A
:104B20000C98406800F0030002282FD1FFE70D9891
:104B3000806808900B984100032000FA01F1089862
:104B4000884308900C98C0680B99490000FA01F15D
:104B500008980843089008980D9988600D98406857
:104B600008900B99012000FA01F1089888430890F9
:104B70000C984068C0F300100B9900FA01F10898F6
:104B80000843089008980D994860FFE70C98406822
:104B900000F00300032818D0FFE70D98C0680890C4
:104BA0000B984100032000FA01F10898884308900F
:104BB0000C9880680B99490000FA01F108980843A5
:104BC000089008980D99C860FFE70C98406800F0BD
:104BD0000300022826D1FFE70D980B996FF003021E
:104BE00002EA51010844006A08900B9800F007009F
:104BF00081000F2000FA01F10898884308900C9872
:104C000000690B9901F00701890000FA01F1089889
:104C10000843089008980D990B9B02EA530211442F
:104C20000862FFE70D98006808900B984100032088
:104C300000FA01F10898884308900C98406800F049
:104C400003000B99490000FA01F108980843089005
:104C500008980D9908600C9880798007002800F06A
:104C60000E81FFE7FFE70020079043F64400C4F2FF
:104C70000200016841F480410160006800F4804056
:104C800007900798FFE70B9820F0030043F6080110
:104C9000C4F20101405808900B9800F00300810015
:104CA0000F2000FA01F10898884308900D98002120
:104CB000C4F20201884203D1FFE7002006905EE0C3
:104CC0000D9840F20041C4F20201884203D1FFE78F
:104CD0000120059050E00D9840F60001C4F2020159
:104CE000884203D1FFE70220049042E00D9840F68D
:104CF0000041C4F20201884203D1FFE70320039080
:104D000034E00D9841F20001C4F20201884203D15F
:104D1000FFE70420029026E00D9841F20041C4F222
:104D20000201884203D1FFE70520019018E00D98A9
:104D300041F60001C4F20201884203D1FFE70620D8
:104D400000900AE00D9941F60042C4F202020820E8
:104D5000914208BF07200090FFE700980190FFE70D
:104D600001980290FFE702980390FFE703980490F0
:104D7000FFE704980590FFE705980690FFE706987F
:104D8000C0B20B9901F00301890000FA01F1089803
:104D90000843089008980B9921F0030143F6080294
:104DA000C4F20102885043F60840C4F201000068D2
:104DB000089009990898884308900C988079C00653
:104DC000002805D5FFE70999089808430890FFE7F0
:104DD000089843F60841C4F20101086043F60C400C
:104DE000C4F2010000680890099908988843089067
:104DF0000C9880798006002805D5FFE70999089866
:104E000008430890FFE7089843F60C41C4F20101FB
:104E1000086043F60440C4F2010000680890099954
:104E20000898884308900C9880798007002805D559
:104E3000FFE70999089808430890FFE7089843F6A8
:104E40000441C4F20101086043F60040C4F20100CD
:104E50000068089009990898884308900C98807910
:104E6000C00728B1FFE70999089808430890FFE7B1
:104E7000089843F60041C4F201010860FFE7FFE72C
:104E8000FFE70B9801300B902FE60EB07047000043
:104E900082B00190ADF802108DF801209DF801005C
:104EA00028B1FFE7BDF802000199886105E0BDF86F
:104EB0000200000401998861FFE702B0704700001A
:104EC00049F2E820C2F200000068704740F26450E6
:104ED000C2F20000027849F2E821C2F2000108683B
:104EE000104408607047000080B543F60041C4F2EA
:104EF0000201086840F400700860086840F48060AF
:104F00000860086840F480700860032000F0CEF864
:104F10000F2000F005F800F079F8002080BD0000B7
:104F200080B58CB00B90002004900390FFE7002028
:104F3000009043F64000C4F20200016841F0010114
:104F40000160006800F0010000900098FFE706A8EB
:104F500002A901F0B7FB09980490049820B9FFE773
:104F600001F0E0FB059004E001F0DCFB400005905F
:104F7000FFE705984DF68361C4F21B31A0FB0101E8
:104F80004FF0FF3000EB9140039043F29000C2F2EB
:104F900000004FF08041016040F2E731C1600399A9
:104FA0004160002101618160816102F009FB8DF89F
:104FB00007009DF8070028BBFFE743F29000C2F20C
:104FC000000002F023FC8DF807009DF80700C0B92F
:104FD000FFE71C2000F046F80B980F280CD8FFE7DD
:104FE0000B991C20002200F047F80B9840F2685102
:104FF000C2F20001086003E001208DF80700FFE71E
:10500000FFE7FFE79DF807000CB080BD80B582B0D8
:10501000FFE70020019043F64400C4F2020001685B
:1050200041F480410160006800F4804001900198E3
:10503000FFE7FFE70020009043F64000C4F20200C3
:10504000016841F080510160006800F080500090DC
:105050000098FFE76FF001000F21002200F00CF82C
:1050600002B080BD80B582B08DF807009DF90700C1
:105070000DF0C0F802B080BD80B586B08DF8170085
:1050800004910392002002900DF0CCF802909DF95B
:105090001700019002980499039A06F0C1F801469E
:1050A00001980DF0C7F806B080BD000080B582B051
:1050B000019001980DF0E0F802B080BD0DF0FAF813
:1050C00082B001908DF8031002B0704782B0019059
:1050D000ADF80210BDF8020001990968486200208D
:1050E00002B0704784B003908DF80B10ADF8082023
:1050F00003980068406A00909DF80B0048B9FFE7EC
:10510000BDF80810009840EA0140039909688862D8
:1051100033E003980068816A009800EB114000902A
:1051200000208DF80700FFE79DF807009DF80B10A1
:105130000139884213D2FFE7039800689DF80710F1
:1051400000EB8100D0F80411009800EB11400090B2
:10515000FFE79DF8070001308DF80700E4E7BDF890
:105160000810009840EA0140039909689DF80B2057
:1051700001EB8201C1F80001FFE7002004B0704795
:1051800080B582B001900198D0F808050AF092FA33
:1051900002B080BD80B582B001908DF80310019AF5
:1051A000D2F808059DF8031001EBC10302EB83025E
:1051B000D26C0AF0DBF802B080BD000080B582B08E
:1051C00001908DF80310019AD2F808059DF803109C
:1051D00001EBC10302EB8302D2F88C220AF090F9B2
:1051E00002B080BD80B582B001900198D0F808056A
:1051F0000AF066FA02B080BD80B584B003908DF8E5
:105200000B109DF80B00000600280CD5FFE7039853
:105210009DF80B1001F00F0101EBC10100EB8100C3
:105220003C3001900CE003989DF80B1001F00F0149
:1052300001EBC10100EB810000F51F700190FFE759
:105240000398006801990CF091F88DF80A009DF818
:105250000A0004B080BD000080B584B002908DF8D3
:1052600007109DF80700000600280FD5FFE70298F9
:105270009DF8071001F00F0101EBC10100EB810067
:105280003C3000900099012048700FE002989DF892
:10529000071001F00F0101EBC10100EB810000F5E7
:1052A0001F700090009900204870FFE79DF80700EC
:1052B00000F00F0000990870FFE7029890F8BC0416
:1052C000012804D1FFE702208DF80F0014E00299B5
:1052D000012081F8BC04FFE7FFE70298006800990D
:1052E0000BF06CFAFFE70299002081F8BC04FFE79D
:1052F00000208DF80F00FFE79DF80F0004B080BD7F
:1053000080B584B002908DF807109DF8070000F07A
:105310000F0002994968884204D9FFE701208DF8FF
:105320000F004DE09DF80700000600280FD5FFE7AD
:1053300002989DF8071001F00F0101EBC10100EB8D
:1053400081003C3000900099012048700FE00298E5
:105350009DF8071001F00F0101EBC10100EB810086
:1053600000F51F700090009900204870FFE7009939
:10537000002088709DF8070000F00F000099087069
:10538000FFE7029890F8BC04012804D1FFE702204F
:105390008DF80F0014E00299012081F8BC04FFE7AA
:1053A000FFE70298006800990BF088FDFFE702997B
:1053B000002081F8BC04FFE700208DF80F00FFE714
:1053C0009DF80F0004B080BD82B001908DF80310ED
:1053D00001989DF8031001F00F0101EBC10100EBF2
:1053E0008100D0F89C0202B07047000080B586B002
:1053F00004908DF80F10ADF80C208DF80B300020C4
:105400008DF80A009DF80F00000600280FD5FFE771
:1054100004989DF80F1001F00F0101EBC10100EBA2
:1054200081003C3001900199012048700FE0049800
:105430009DF80F1001F00F0101EBC10100EB81009D
:1054400000F51F700190019900204870FFE79DF85A
:105450000F0000F00F0001990870BDF80C000199D1
:10546000C8609DF80B00019908710198407820B13F
:10547000FFE7019908780881FFE79DF80B000228F3
:1054800004D1FFE7019900204871FFE7FFE7049886
:1054900090F8BC04012804D1FFE702208DF8170022
:1054A00015E00499012081F8BC04FFE7FFE70498A8
:1054B000006801990BF03CF8FFE70499002081F89F
:1054C000BC04FFE79DF80A008DF81700FFE79DF880
:1054D000170006B080BD000080B586B005908DF83D
:1054E00013100392029305989DF8131001F00F0119
:1054F00001EBC10100EB810000F51F7001900398E2
:105500000199086102980199886101990020086257
:10551000019948709DF8130000F00F000199087080
:1055200005980069012804D1FFE7039801994861B3
:10553000FFE79DF81300000738B9FFE7059A1068E8
:105540000199127C0BF06EFB06E0059A1068019938
:10555000127C0BF057FDFFE7002006B080BD000075
:1055600080B584B002908DF807109DF8070000F018
:105570000F0002994968884204D9FFE701208DF89D
:105580000F0058E09DF80700000600280FD5FFE740
:1055900002989DF8071001F00F0101EBC10100EB2B
:1055A00081003C3000900099012048700DE0029885
:1055B0009DF8071001EBC10100EB810000F51F70A1
:1055C0000090009900204870FFE700990120887042
:1055D0009DF8070000F00F0000990870FFE702989F
:1055E00090F8BC04012804D1FFE702208DF80F00D9
:1055F00021E00299012081F8BC04FFE7FFE702984F
:10560000006800990BF0AAFC9DF80700000740B95C
:10561000FFE7029A1068117C02F2C4420BF0FEFB15
:10562000FFE7FFE70299002081F8BC04FFE70020B4
:105630008DF80F00FFE79DF80F0004B080BD00005B
:1056400080B586B005908DF81310039202930598EB
:105650009DF8131001F00F0101EBC10100EB810077
:105660003C30019003980199086102980199886182
:105670000199002008620199012048709DF81300EB
:1056800000F00F000199087005980069012804D105
:10569000FFE7039801994861FFE79DF813000007B1
:1056A00038B9FFE7059A10680199127C0BF0BAFA35
:1056B00006E0059A10680199127C0BF0A3FCFFE745
:1056C000002006B080BD000080B58CB00B900B9818
:1056D00000680A900A9809900B9800680BF088FF00
:1056E000002840F00D84FFE70B9800680BF0ECFFFA
:1056F00010B9FFE700F004BC0998D0F80808C0F31F
:105700000D200B99C1F8FC040B9800680BF0DCFF2E
:105710008007002807D5FFE70B980168486900F06B
:1057200002004861FFE70B9800680BF0CDFFC00650
:10573000002862D5FFE70B980168886920F0100007
:1057400088610A98006A02900B98029901F00F0193
:1057500001EBC10100EB810000F51F700890029879
:1057600000F4F0110220B0EB514F23D1FFE7BDF858
:10577000080047F6F07108421BD0FFE70A98089925
:105780000969029AC2F30A120BF0ACFF029847F6BD
:10579000F07100EA0103089A106900EB1310106120
:1057A000029800EA01020899086A00EB12100862E8
:1057B000FFE71BE0029800F4F0110620B0EB514F18
:1057C00012D1FFE70A980B9901F2C44108220BF0AD
:1057D00089FF029847F6F07100EA01020899086A09
:1057E00000EB1210086200E0FFE7FFE70B9801688A
:1057F000886940F010008861FFE70B9800680BF0A3
:1058000063FF0003002840F1A680FFE7002004901A
:105810000B9800680BF006FF0690FFE7069800283B
:1058200000F09880FFE79DF81800C007002800F0FE
:105830008A80FFE70B9800689DF810100BF02CFF92
:1058400005909DF81400C00760B1FFE7099804991E
:1058500000EB41110120C1F8080B0B98049905F0E9
:1058600063FDFFE79DF81400000700280CD5FFE753
:105870000998049900EB41110820C1F8080B0B9816
:10588000049905F00BFDFFE79DF81400C006002801
:1058900008D5FFE70998049900EB41111020C1F8E1
:1058A000080BFFE79DF81400800700282DD5FFE7BF
:1058B0000A9840690006002808D5FFE70999D1F841
:1058C000040840F48060C1F80408FFE70B980499CD
:1058D00001EBC10100EB810000F51F7008900898F2
:1058E000C078012809D1FFE708990020C8700B98FB
:1058F0009DF8101000F014FBFFE70998049900EBE5
:1059000041110220C1F8080BFFE79DF81400800642
:10591000002808D5FFE70998049900EB41112020E1
:10592000C1F8080BFFE79DF815008006002809D58F
:10593000FFE70998049900EB41114FF40050C1F8BA
:10594000080BFFE7FFE70498013004900698400831
:10595000069063E7FFE70B9800680BF0B5FE400385
:10596000002840F1C680FFE70B9800680BF048FE66
:10597000069000200490FFE70698002800F0B88009
:10598000FFE79DF81800C007002800F0AA80FFE795
:105990000B9800689DF810100BF056FE05909DF8CE
:1059A0001400C00700283ED0FFE7049800F00F0164
:1059B000012000FA01F10391039B099AD2F83418EF
:1059C0009943C2F834180999049A01EB4211C1F8BD
:1059D00008090B98006901281FD1FFE70B9804996B
:1059E00001EBC10100EB81018A6CC86C1044C864F2
:1059F000049888B9FFE70B98049901EBC10100EB0B
:105A00008100406D40B9FFE70B99086801F2C4427C
:105A100001210BF003FAFFE7FFE70B989DF8101048
:105A2000FFF7B8FBFFE79DF814000007002808D532
:105A3000FFE70998049900EB41110820C1F8080913
:105A4000FFE79DF81400C006002808D5FFE7099875
:105A5000049900EB41111020C1F80809FFE79DF8F7
:105A600014004006002808D5FFE70998049900EBC8
:105A700041114020C1F80809FFE79DF81400800794
:105A8000002822D5FFE70A9804990BF047FD0B98F0
:105A9000049901EBC10100EB81003C3008900898AB
:105AA000C078012809D1FFE708990020C8700B9839
:105AB0009DF8101000F026FAFFE70998049900EB12
:105AC00041110220C1F80809FFE79DF81400000603
:105AD000002805D5FFE70B98049905F009FDFFE7BD
